:020000041000EA
:1000000000B5324B212058609868022188439860DF
:10001000D860186158612E4B002199600221596106
:100020000121F02299502B49196001219960352056
:1000300000F044F80222904214D00621196600F024
:1000400034F8196E01211966002018661A6600F04E
:100050002CF8196E196E196E052000F02FF8012189
:100060000842F9D1002199601B49196000215960AB
:100070001A491B48016001219960EB211966A021F2
:10008000196600F012F800219960164914480160C1
:100090000121996001BC002800D000471248134993
:1000A000086003C880F30888084703B5996A0420EC
:1000B0000142FBD001200142F8D103BD02B5186610
:1000C0001866FFF7F2FF186E186E02BD00000240BE
:1000D000000000180000070000035F00212200005C
:1000E000F4000018222000A00001001008ED00E03C
:1000F00000000000000000000000000074B24E7A12
:1001000000200420F7010010C3010010C5010010F9
:10011000C1010010C1010010C1010010C101001097
:10012000C1010010C1010010C1010010C701001081
:10013000C1010010C1010010C9010010CB01001065
:10014000CD010010CD010010CD010010CD01001037
:10015000CD010010CD010010CD010010CD01001027
:10016000CD010010CD010010CD010010CD01001017
:10017000CD010010CD010010CD010010CD01001007
:10018000CD010010CD010010CD010010CD010010F7
:10019000CD010010CD010010CD010010CD010010E7
:1001A000CD010010CD010010CD010010CD010010D7
:1001B000CD010010CD010010CD010010CD010010C7
:1001C00000BE00BE00BE00BE00BE00BEEFF3058054
:1001D000103800BEF2EB8871F820001020210010CA
:1001E0003802001090A31AE71E481F49086006C88D
:1001F00081F3088810471D480068002801D019487D
:10020000F3E70DA40ECC002902D000F012F8F9E7B4
:100210001749184A002000E001C19142FCD116495B
:100220008847164988471649884700BEFDE701C937
:1002300001C29A42FBD3704720210010C000002069
:1002400050020020B0220010000004200000042012
:10025000B022001000100420001004200000000054
:10026000704700000000000008ED00E0000000D032
:100270005002002050060020C51800102103001075
:10028000BD180010F8B5C0460448054B10B58342B0
:1002900003D0044B002B00D0984710BD5002002023
:1002A000500200200000000006480749091A8B1080
:1002B000C90FC91810B5491003D0044B002B00D04A
:1002C000984710BD5002002050020020000000009E
:1002D00010B5074C2378002B09D1FFF7D5FF054B4C
:1002E000002B02D0044800E000BF0123237010BDA2
:1002F000D005002000000000D01F0010054B10B5F5
:10030000002B03D00449054800E000BFFFF7CCFFF5
:1003100010BDC04600000000D4050020D01F001012
:1003200010B501F0E3FB01F04DFD002010BDC0460B
:10033000094A83009A1810B514684022544080324C
:100340002240064CC000A44663441A60044B9C46FD
:100350006044416010BDC04604C0014004D001406B
:1003600000400140074B8000C3181B68C900920081
:100370000A435A400C231340034A944660440360E6
:100380007047C04604C0014004D001400123D02280
:100390008340120693629361094A83009A18116898
:1003A0004022514080320A400649C0008C466344D6
:1003B0001A60054B9C460523604443607047C04665
:1003C00004C0014004D00140004001400FB400B51A
:1003D000084883B001F0DCFB049B002B07D005A983
:1003E0001800019101F050FA034801F0D1FB0120FF
:1003F00001F062FAD01F0010E01F001070B5EFF39B
:10040000108C72B60D4D2B68002BFCD0BFF35F8FA4
:100410000724CB08C618C05C01230C40A3401C0075
:100420000440034207D118433070BFF35F8F2C6044
:100430008CF3108870BD1000FFF7C8FF2C0100D0AE
:10044000044A1078431CDBB2172B00D91023137019
:100450007047C046980100200021044B044ABFF3B6
:100460005F8F02C39342FAD17047C046000100D0AB
:10047000800100D0054B064A1360064A13605360A2
:100480009360D36013615361936170478080808073
:1004900000E400E004E400E01F2318401E3B83401A
:1004A000002905D0C021044A490053501360704709
:1004B000802201498B50FAE700E100E070B50D00A1
:1004C000EFF3108672B60F4A1368002BFCD0BFF30F
:1004D0005F8F0D4B10309B6884001B590B4A934271
:1004E00003D09D4201D001F005F8074B9B681D51D8
:1004F000BFF35F8FBFF35F8F0022024B1A6086F35A
:10050000108870BD240100D000ED00E0CD01001086
:10051000F0B5DE4657464E464546E0B50C0083B082
:10052000EFF3108872B6634A1368002BFCD0BFF358
:100530005F8F614B61499A68030010339F00D55962
:1005400000938D4243D0A54254D05D4EAA1B2F2A62
:100550003DD85C4B9C461B689A4601231A0099467D
:100560008240534613401F2201934B460240934062
:100570009A468022634650469850BFF35F8FEFF350
:1005800005839B46002B37D0009B5B4501D000F0D4
:10059000B1FF2A004B469A439068844208D177E025
:1005A0004B005B189B00F3189868844236D01A0001
:1005B000062151560029F3DA844255D0019B002BC5
:1005C00027D0C02251463F4B5200995019603A4BF8
:1005D0009B68DD51BFF35F8FBFF35F8F0022354B08
:1005E0001A6088F3108803B0F0BCBB46B246A94637
:1005F000A046F0BD0D00EAE72A004B469A439068FA
:100600008442D5D106201056130000280ADA0D00C6
:1006100032E0802351462B4AD150D8E706201856A5
:10062000002822DB42001118890074188946A1684D
:100630009960E179D971062161569971002925DB0C
:10064000A488F11A640524154C440919E02409050D
:10065000490D24022143998013181B4A9B001178ED
:10066000F31899711070A9E713005946002914D1A5
:10067000FF3191711549918013490A789A71144A92
:100680009B1B5B415A43120D0A7097E71149E2E741
:100690000620105613000028C4DA0F4A0F49D21A58
:1006A000083A5002400D014399800D4952080A430F
:1006B000DA8083E7240100D000ED00E0CD010010D6
:1006C0009C01002000E100E04C06002001BDFFFF7E
:1006D000AAAA000001BD0000D601002000F0FFFF23
:1006E00000F8FFFF70B501240443EFF30581EFF339
:1006F000108C72B6214A1368002BFCD0BFF35F8FB9
:100700001F4B05001F4AED1A6D416A43120D1E4D25
:100710008900AE6852B27658A6421CD006215956BE
:1007200091421CD012215956914222D01E21595675
:10073000914220D02A2159560324914210D0134BC4
:1007400019781A708171BFF35F8F00220B4B1A600A
:100750008CF3108870BDAB680D4C5C50EFE7002443
:100760006100091989005B18FF2199710949998075
:10077000E5E70124F4E70224F2E7C046240100D0B3
:100780009C010020AAAA000000ED00E04C06002019
:10079000CD01001001BDFFFF024B9C466144890062
:1007A0000160704740000034F8B5134D134E2C0023
:1007B000FF27B5421ED22368002B0FD0FFF740FE63
:1007C00001002800FFF7E8FFA780BFF35F8F083420
:1007D000B4420FD223682500002BEFD1FFF730FE83
:1007E00001002800FFF7D8FF2771BFF35F8F08349F
:1007F000B442EFD3F8BDC0464802002050020020AA
:100800000A4B1968EFF3108072B60A68002AFCD010
:10081000BFF35F8F1B68BFF35F8F00221A6080F306
:10082000108840BF002000217047C04640060020CD
:10083000F0B5DE4657464E464546E0B585B0EFF387
:10084000058203231340B84A9900575801229A4061
:10085000B64B88461A60B64B934602932AE0BB8893
:100860001BB2002B00DBA2E0BB79002B00D0E3E041
:100870000823F85E002800DA13E143007A691B18A8
:10088000DB00D3189D68DC686B1C00D100E1A94B2C
:10089000190041449A6A0B69A81A9B1A984200D21F
:1008A0000D61A44800F0C2FA8C4200DDF9E08C42F0
:1008B00000D130E15B469F4843630823FE5E002E73
:1008C000CDDB7A69730091469B19DB0099444B4656
:1008D0009C68DD6800F0AAFA8D42C0DC00D108E116
:1008E000002D00DAEDE04B46029A1B69934200D1DD
:1008F000DFE04A465288494694460822B85E62467E
:100900000004496910439847009001910099019AA9
:100910000B001000134300D1D3E013000A0000289D
:1009200000DBEAE020002900801A99414B469860DC
:10093000D96000229A5E002A91DB53009C187D69E1
:10094000E4002C190093A368E4689A468C4286DC84
:1009500002D1834200D982E708239C46BC443A81F5
:1009600003976746009BB4463E000EE08C4200D1E0
:10097000D5E01E000023F25E002A0BDB53009C181A
:10098000E4002C19A768E468BA469B18DB00EB1852
:100990008C42EBDD330066469C464B461A8063462C
:1009A000039F1E80BB881BB2002B00DA5CE73A690C
:1009B000EFF3108172B61368002BFCD0BFF35F8F8A
:1009C0000123BE885B42BB8036B23B69BFF35F8FB9
:1009D00000221A6081F31088002E00DA44E73B0001
:1009E00008333A0099467D6973009B19DB00EB18C8
:1009F0009968DC688C460820115E4846002910DBA7
:100A0000009306E0A3423FD00023F95E380000299E
:100A100006DB4F007F18FF00EF19FB68A342F1DDF2
:100A2000009B068000201E5E1980002EDCDA170075
:100A3000BB79002B00D11BE70023BB713D000823CD
:100A4000F95E08354B1C2CD07C690800A44603E0F5
:100A500035004B1C00D10DE74B005B180A006146C6
:100A6000DB00CE18C95E73881BB2002BF0DA0123BD
:100A70005B42DC17B360F4608242EAD029803B8994
:100A8000100033803A81E4E7BB686345BCD9C7E70F
:100A9000631C00D0FBE6274800F0C8F98C4200DC5C
:100AA00005E740BF05B0F0BCBB46B246A946A0462C
:100AB000F0BD4B465B699A461B6950469847002833
:100AC00023D14B461B883A693B81EFF3108372B602
:100AD00011680029FCD0BFF35F8F49467A880A80ED
:100AE0003A697E80BFF35F8F0021116083F3108825
:100AF000B5E6844200D8F3E6B1E60E4800F096F978
:100B0000009B019CC018614110E753461A685B685E
:100B100000920193FAE6854200D8CBE6C1E7824510
:100B200000D826E736E7C0462C0600203C7005407A
:100B3000310800100040054070B52E4C2569002D8D
:100B400004D00A212C48FFF727FE70BD2B4E03214D
:100B5000300000F061F9E660FFF772FC284B0322D9
:100B60009C46D02322701B061B6801216370254B15
:100B70006044A3600F2380002061022063806369CA
:100B80004942A18019800231198647311D8358528C
:100B900018315A5275325C399952183201319952D2
:100BA00018320131995218320131995208351832F0
:100BB0009D5202311832995218320131995218322D
:100BC000013199521832013199521832013199523A
:100BD0001832013199520C4B0C49DC6001303562FE
:100BE000FFF76CFC01210320FFF756FC084B1D604A
:100BF000A7E7C046E4010020400600200040054071
:100C000040000034FFFF10002C06002031080010C7
:100C10003860054070B501000469EFF3108C72B6BE
:100C200020680028FCD0BFF35F8F02200D5E4C6966
:100C300068004019C0002418002D37DB2088488048
:100C40000869BFF35F8F002606608CF31088E360AD
:100C500063880498013320615B0405985B0CA260F3
:100C600060611A1C002B1FD093B2280462801843C5
:100C70000A69EFF3108C72B61368002BFCD0BFF337
:100C80005F8F8B8823808D800B69BFF35F8F00227D
:100C90001A608CF310880B7801329A40CB680849AF
:100CA0008C4663441A6070BD0122DDE70B69BFF317
:100CB0005F8F00221A608CF3108801204042F2E717
:100CC0003C20000010B543890A1493421ADD5300FA
:100CD0009B184269DB00D3180469EFF3108C72B6DD
:100CE0002268002AFCD0BFF35F8F5A88090494B2AF
:100CF000090C8A4208D00369BFF35F8F00221A6093
:100D00008CF31088002010BD8022120214435C80F6
:100D1000012302698371BFF35F8F002111608CF39F
:100D20001088044902788C469340C26801206244CE
:100D30001360E8E73C200000F0B5CE46474680B59A
:100D400004000D0083B0EFF30587002F3BD12F4E39
:100D500081463378F16804339B008A6A5B58811AB4
:100D60009B1A99420ED320BF294A0020536AAB42F6
:100D700003D3926A013091453CD803B0C0BCB94658
:100D8000B046F0BD00F05AF822002B00121A8B4139
:100D9000002B26DB1F4B2200009330002B00019715
:100DA000FFF738FF011E1CDD194BA8465A6A954211
:100DB00025D920BF3000FFF785FF154A0020536A70
:100DC0009845DAD8D5E7124A0020536A8B42D4D32B
:100DD000926A0130A242D0D25B1A5A1E9341D8B215
:100DE000CBE70B4A0020536AAB42C6D3926A01207C
:100DF0009145C2D9EB1A5A1E9341D8B2BDE79B6AFE
:100E00009C42D7D99542D5D1D3E7C046E401002012
:100E1000004005400108001010B5024A0248FFF7E3
:100E2000EDFA10BDE41F0010F40500200300416A34
:100E30000A00986A596A8A42FAD17047034B596A84
:100E40000A00986A596A9142FAD1704700400540F9
:100E500070B504000D00174A536A1900966A536A68
:100E60008B42FAD13000190024184D41AB4216D8FC
:100E700013D0104B2A005B6A9D4203D90D494B6A7F
:100E80009342FCD3934207D10A4A02E0516A994245
:100E900002D1916AA142F9D370BDA642E9D9054BAE
:100EA0005B6A1C005A1CEFD0012201246442E51742
:100EB0005242E3E700400540F0B557464E46DE4655
:100EC00045468446E0B583B01F000CAB18786346F6
:100ED000914600221B680190DA6601325960DA6699
:100EE000002F4FDD7A1E904662461279012692024B
:100EF000802493463A004640760280253700002041
:100F000046461021A2469046AD00341A6242544132
:100F10004A4664423C4000945C46125C2243009C7A
:100F200022431A615A6B1142FCD052469C58002C45
:100F300010D1864221D00022013093468045E4D171
:100F40006346019A1A7103B0F0BCBB46B246A9468B
:100F5000A046F0BD5A6D012293465A6B2A42FCD03E
:100F60001A6E5A46002AE6D0002C03D0E30701D4BB
:100F70002407E5D401204042E2E7019A002ADAD1B1
:100F80009346EAE70020DBE7F8B5DE4657464E46D3
:100F900045468346E0B505200C0000F077F90600D1
:100FA00060082100801900F083FB430098468044CC
:100FB00007000521404600F07BFB3B1A9A461E4B7A
:100FC0008146700080199C4231D81C4900F070FBAA
:100FD000451C5B461C680023E366226804335A40C4
:100FE0000233134080225201A21813605346E3617A
:100FF0004B462362434601204F2B03D950214046E4
:1010000000F056FBA023E050E36F39005D400C4B2D
:101010002D042D0CE3181D6001233000E36600F061
:1010200047FBF0BCBB46B246A946A046F8BD054901
:1010300000F03EFB451CCCE73F420F008096980035
:101040007C10000040787D01104A70B5821A53422E
:101050005A41072352429A430D4B10321A600D4BEE
:101060000D4C1A60150023689D432B1EFAD166248F
:101070000268FF340571D5661460633C8833FF3C19
:10108000D5639563D450FFF77FFF70BDFC0100204E
:1010900000E0004000F0004008C0004010B582B001
:1010A00004AC24780094FFF707FF02B010BDC046DF
:1010B000F8B5DE464E4657464546E0B58B46050038
:1010C0000A991800160000F0F3FA0A9B6C001F0240
:1010D000324B64199C46A4006444636881469F4275
:1010E00000D967602B1FDBB29846012B30D9C02393
:1010F00080229B01E31812011A60294BAD00595957
:101100009A4600291BD17301E026226853401E40F5
:10111000802342465B01E3181E60012A30D98023F8
:1011200080229B01E31812011A6053464A46676009
:101130005A51F0BCBB46B246A946A046F8BD586914
:1011400000F0B6FA013043001B18033BFDD2DAE78A
:101150005B46012BCBD1C02303229B01E3181A600D
:10116000023AA3681A42FCD07301E0262268AD005F
:1011700053401E4080230A4A5B019246E3181E60DA
:101180005A462168514003220A401A6001225B46F8
:101190009A40A3681A42FCD0C1E7C04600800040D4
:1011A000F8050020F0B546464F46D646C0B51F00AC
:1011B000344B44009C462418A40064446368884669
:1011C0001600FF2B02D880235B006360031FDBB295
:1011D0009A46012B30D9C02380229B01E3181201CB
:1011E0001A60294B85005959994600291BD1730172
:1011F000E026226853401E40802352465B01E318DC
:101200001E60012A30D9802380229B01E31812013D
:101210001A6080235B0063604B465F51E0BCBA46B6
:10122000B146A846F0BD586900F042FA01304300CB
:101230001B18033BFDD2DAE74346012BCBD1C02379
:1012400003229B01E3181A60023AA3681A42FCD0F9
:101250007301E0262268850053401E4080230A4A1D
:101260005B019146E3181E6042462168514003220B
:101270000A401A60012342469340A2681342FCD000
:10128000C1E7C04600800040F8050020014B800007
:10129000C0587047F8050020F8B5040020481D002C
:1012A00017000E0000F004FA0100380000F000FA08
:1012B000069B29041B0319432368002B1EDB194BD3
:1012C000194DE21853425A4180235B019C46120398
:1012D000164B62441A60164B1A6017002B689F4326
:1012E000FBD1144B2660E2182123A0601360236811
:1012F000002BFCDA0823E1601360F8BD3F2322686D
:101300001340B342DBD1A3681B051B0D8342D6D12A
:10131000EE22E368D20213408B42D0D1EDE7C04603
:10132000001BB7000040FDBF08C0004000E00040C7
:1013300000F00040043000008023024A9B000B4371
:10134000D362704700800540142310B5010018884F
:1013500004331B88984710BD162310B50100188868
:1013600002331B88984710BDF8B54746CE4680B576
:101370000F1E19D0142399460433040000250126BA
:1013800098464B461888434621681B88984701C4F5
:10139000431E9841013540420640AF42F1D1300032
:1013A000C0BCB946B046F8BD0126F8E7AA23064AF4
:1013B0001B0113602F230549D360054B1960536847
:1013C000002BFCDA7047C0460040024000B0FA0033
:1013D00000600240F8B5040006200D00FFF756FF3C
:1013E000002842D0364B3749E21853425A418023F5
:1013F000DB039C469205344B62441A60334B1A60FF
:1014000010000B689843FBD12D4B314AE318594229
:101410004B4180215B00490006209952FFF736FFBF
:101420002900C00000F044F90130C3091ED1402753
:1014300001226262A362266BF30722D4E36A254B82
:101440000620E51800232B602663FFF71FFF3900F5
:10145000800000F02DF97023E26A5A400E331340E9
:101460002B601D4B23630323A364F8BD1B4A9342E7
:101470001ED900231A4A1B4F6262A362266BF30730
:10148000DCD5194B144AE3181A60656AA36A062072
:10149000AD01ED18FFF7FAFE144900F009F9AD02AD
:1014A0000100280000F004F90021FFF7D1FCC5E796
:1014B0004006800E9F011A003F180300B9E7C0469E
:1014C0000080FCBF08C0004000E0004000F0004089
:1014D000440600202C10000001030000FEFF000065
:1014E000FFFF0000C0FF3F00303000004E0E000044
:1014F0007047C04610B50148FEF768FF082000108D
:1015000070B5074D074EB54209D20024013E761B47
:10151000B60808CD984723000134B342F9D170BD15
:10152000901F0010CC1F0010054B064A06491A6098
:10153000064A074B1A6010000B689843FBD17047AE
:1015400000E00040BFCDFBFE08C00040FE7F3C0035
:1015500000F00040044BDB6C002B03D18022034BD6
:10156000D2021A607047C046000011504C20115042
:10157000044A054B1A60054A1368DB018033FBD12E
:101580007047C046FFFFFF0100F0004008C0004068
:101590004022034B9A675A671A67DA667047C0465B
:1015A00000F0014010B5FEF757FF10BD70B5044DB7
:1015B000044CA968C022200000F058F9AC6070BD4E
:1015C00000ED00E000000020002310B5294C82B09F
:1015D000A367FFF7EBFE0122274B1A60636C012B18
:1015E000FCD10322254B1A60224A936B012BFCD1BC
:1015F000013300930121224A22480433FFF74CFEB5
:10160000052301210093204A2048FFF745FE0022D0
:10161000022104201E4BFFF7C5FD002201210520F9
:101620001C4BFFF7BFFD0022002107201A4BFFF7DC
:10163000B9FD002200210820174BFFF7B3FD8023DE
:10164000DB000093002200210920134BFFF730FD3F
:101650000022104B00210620FFF7A4FD0420FFF715
:1016600015FE0E4900F024F801000020FFF764FE8B
:1016700002B010BD008000403CB0004030B00040DF
:10168000002F685900800240008C864700C002404D
:10169000001BB70040597307006CDC0240420F008A
:1016A00001480421014B1847100200206913001063
:1016B000114A936F9B0813D210665166002905D01A
:1016C000FFE7FFE7FFE7516F106F704704B5002891
:1016D00001D00020C04300F04BFC002104BDC046F7
:1016E000F0B5146E556E576F166FFFF7E5FF146671
:1016F000556657671667F0BD000000D0132370B51C
:101700001D78012D19D014DD1F48FFF725FE0600B6
:101710001E48FFF721FE1E4C80223100200000F001
:10172000A5F8022D2DD01B48FFF70EFE1A4B1860AE
:1017300070BD1A4B164CA364F5E7184B144C23608C
:101740006360A360E36023616361A361E36123627B
:101750006362A362E36223636363A363E36323645B
:101760006364A364E36423656365A365E36523663B
:101770006366A366E36623676367A367E367A3649F
:10178000D1E7064BA364CEE7534400005346000064
:10179000D00300204C3300003C060020A1170010AD
:1017A00007B5604601880A0A0230DF2AFAD1C9B2B9
:1017B000820804D3028840880004104300E00068D7
:1017C000014A5050039007BDD0030020132310B5E9
:1017D00012481C78FFF7C0FD0100012C0AD003DD80
:1017E00080220F4800F042F80E48FFF7ADFD0E4B87
:1017F000186010BD0A4C5422200000F037F80B4B43
:101800006365A365E36523666366A366E366236792
:101810006367A367E3672362E361E5E7534600007C
:10182000D00400204C3300003C060020311800108A
:1018300007B5604601880A0A0230DF2AFAD1C9B228
:10184000820804D3028840880004104300E0006846
:10185000014A5050039007BDD004002001480421E4
:10186000014B18472002002069130010014B5B68F0
:10187000184700002002002010B5002800D110BD3C
:1018800000F03AF9FBE7C04610B5094A03001468B6
:1018900084B0002C08D0012200910648524203A9CE
:1018A000A047012004B010BD00F072F90020F9E754
:1018B000280600207918001000BEFDE710B5FFF7DC
:1018C000FBFFC04670B5FFF71BFE074D074EB54244
:1018D00009D20024013E761BB60808CD98472300A4
:1018E0000134B342F9D170BDCC1F0010D01F0010DD
:1018F000030010B5080011001B68984710BDC046D2
:10190000F0B546464F46D646C0B5437D80460E00EC
:101910001700002B4BD0002A32DD274B01259A46B9
:101920004B1E00240020994607E0335D0A2B2CD083
:101930002B0001340135BB4213DA002CF5D133788A
:101940000A2BF5D143461B7D002BF1D1434650466F
:1019500002211B68984728002B0001340135BB4247
:10196000EBDB874204DD4346391A1B683018984781
:10197000F619013E33780D3B5A42534142461375E6
:10198000E0BCBA46B146A846F0BD4B461B5D0D2BE8
:10199000CED0A042DADA4346211A1B6830189847A5
:1019A0004346504602211B6898472800D4E7036845
:1019B000110030009847E3E7AC200010F0B5DE4698
:1019C00057464E464546E0B585B017001C00060058
:1019D0000D00FFF733FA0023314A12184B418021E2
:1019E00009068B4202D301222E4B52422E49080097
:1019F0008A4600F0C5FA01906B1C03D1300000F05C
:101A00007DFA0500002C26D0284B9846284B1C68F0
:101A1000002C15D0002F21D1264F02E02469002C84
:101A20000ED02368002BF9D03B68002B01D0A342D5
:101A3000F4D120002A003100C0472469002CF0D1E5
:101A4000019B002B28D1280005B0F0BCBB46B24654
:101A5000A946A046F0BD184B9846D7E7154B9946C6
:101A600002ABDF1D0A239B4602E02469002CE7D06D
:101A70002368002BF9D04B461B68002B01D0A342F2
:101A8000F3D12A0031002000C0475B460122390013
:101A900020003B70C047E8E7504600F061FAD2E70B
:101AA00040420F00FFFFFF7F480200200119001095
:101AB0002006002024060020F11800100A4A1368AE
:101AC000002B05D10CE01A001B691032002B07D047
:101AD0009842F8D1002902D103691360016170476F
:101AE0000029FCD01060FAE72006002010B500F0B5
:101AF00041F9012010BDC046F0B5CE46474680B53D
:101B000083B06B460600DD1D2870FFF797F90023B0
:101B10001A4A12184B41802109068B4202D3012236
:101B2000174B524217490800884600F029FA164B15
:101B300081461C68002C14D0144F02E02469002C4C
:101B40000FD02368002BF9D03B68002B01D0A342B3
:101B5000F4D1200001222900FFF7D2FE2469002CD5
:101B6000EFD14B46002B05D1300003B0C0BCB946C5
:101B7000B046F0BD404600F0F3F9F5E740420F00F3
:101B8000FFFFFF7F480200202006002024060020DF
:101B900070B5040000F0B2F9012301000500012234
:101BA0002000FFF70BFF084B1C68002C06D0636871
:101BB000002B05D098472469002CF8D1280070BD6F
:101BC0002469002CF3D1F9E720060020F0B50029A4
:101BD00015DD0E4B0D271A680D4B0E4CD3185D42C8
:101BE0006B41451820215B001E5F0478A64207D098
:101BF00093691942FCD101301460A842F5D1F0BDBF
:101C000093691942FCD11760F2E7C04648060020EC
:101C10000080FCBF4406002030B504000D1E2EDD00
:101C2000002010211F4B013C1A689369194216D1FC
:101C3000013093691942FCD1136823548542F4D1D1
:101C4000194B1B68002B08D050239363516B183B32
:101C50000B4016498C466244136028000EE0124B7C
:101C60001B68002B08D050239363516B183B0B402B
:101C70000E498C466244136000280FD030BD0A4BD9
:101C80001B68002B0AD05022064B1B689A63596BC5
:101C9000183A0A4005498C4663441A6003204042C2
:101CA000ECE7C04648060020EC0500203410000098
:101CB000064B10B51B68002B06D00021044A1268A1
:101CC0009163044A1068984710BDC046EC05002097
:101CD00048060020F00500200822034B19688B6994
:101CE0001A42FCD17047C0464806002070B51B4E12
:101CF0001B4B32680500D3185842434114331C0073
:101D0000002D04D0174B1A68002A11D070BD154E53
:101D10003368002BFAD0002120009563FEF7BCFB4E
:101D200020001149FEF7F4FB104B35601D60EDE714
:101D30001D600E4B200019600B49FEF7BFFB01210F
:101D40002000FEF7A9FB502233689A63596B183ABA
:101D50000A4007498C4663441A60D7E748060020CA
:101D60000080FCBFEC050020B11C0010F005002035
:101D7000341000000D4B10B51B780D4B0D4C1B782B
:101D80000D4B02211B780D4B00202360FEF7D0FA8B
:101D900002210120FEF7CCFAE12120684902FFF779
:101DA00019FB01210648FFF789FE10BD1C21001018
:101DB00018210010480600201421001000400340A4
:101DC0003002002070B50026424D84B04249280000
:101DD000FFF73AF90520FEF7D9FA0420FEF7D6FA04
:101DE00003210520FEF7A4FA03210420FEF7A0FA40
:101DF000002201210520FEF7B5FA0022012104206E
:101E0000FEF7B0FA354B03AC2380220002233C21BD
:101E100028000096FFF742F98123DB01238022008E
:101E200002233C2128000096FFF738F92C4B2200B2
:101E300023803C21022328000096FFF72FF98023FE
:101E4000220023803C21280000967E3BFFF726F9E4
:101E5000244B220023803C21022328000096FFF718
:101E60001DF9214B220023803C21022328000096EB
:101E7000FFF714F91D4B220023803C210223280088
:101E80000096FFF70BF980235B42238022003C2160
:101E9000280000968233FFF701F9154B22002380BA
:101EA0003C21022328000096FFF7F8F8114B22008E
:101EB00023803C21022328000096FFF7EFF80E4B09
:101EC000220023803C21022328000096FFF7E6F839
:101ED00004B070BDFC010020A086010080AEFFFFB1
:101EE00080D3FFFF80A1FFFF80C8FFFF8081FFFF3D
:101EF00080A4FFFF80A6FFFF80AFFFFF10B5830720
:101F00000AD00300032102E001330B4205D01A7806
:101F1000002AF9D1181A10BD030019680C4A0D4C9B
:101F20008A188A4322420FD15968094A04338A1811
:101F30008A43224208D15968054A04338A188A43E1
:101F40002242F1D000E001331A78002AFBD1E1E708
:101F5000FFFEFEFE80808080F8B5C04600000000D5
:101F600001B40248844601BC604700BF5D01002007
:101F700001B40248844601BC604700BF85010020CF
:101F800001B40248844601BC604700BFC100002084
:101F90002915001055150010A11600105D1800102D
:101FA000FD160010CD170010C91500107115001096
:101FB00091150010A5150010A9070010AD1500100F
:101FC000390B0010F114001075040010FD02001010
:101FD0000A2A2A2A2050414E4943202A2A2A0A0046
:101FE0000A000000486172647761726520616C616B
:101FF000726D20256420616C726561647920636C68
:1020000061696D65640000004861726420617373EA
:102010006572740052656C6561736500626F6F7400
:10202000325F77323571303830000000322E312E79
:10203000300000007069636F000000006269626C2C
:10204000696F7468656B656E000000004A616E2000
:10205000323720323032350006005250D3F075420C
:102060001420001006005250E182887F1C200010CE
:1020700006005250ABB360532C20001006005250A3
:10208000BBFF3CB63420001006005250861C0302F1
:102090003C200010060052505422A29D4C200010FB
:1020A00005005250DE65F468B02200100D0A0000F1
:1020B0005541525420737464696E00005541525466
:1020C000207374646F7574005541525420737464A6
:1020D000696E202F207374646F757400060052506F
:1020E00053B4F4A1C82000100800525012000000A0
:0820F00008005250921000009C
:1020F8005820001064200010702000107C20001070
:102108008820001094200010A0200010F02000105B
:08211800E8200010DC2000109B
:10212000F0B5C646150000B504001E000268EFF3C6
:10213000108172B61368002BFCD0BFF35F8F0423AD
:10214000E356002B2DDB2268BFF35F8F0020106069
:1021500081F31088D0221206127852B290469A4229
:1021600003D1002080BCB846F0BD00270BE02368F7
:10217000BFF35F8F1F6081F310882800310000F0EB
:1021800033F80028EDD12268EFF3108172B613689E
:10219000002BFCD0BFF35F8F23797F2BE7D9434619
:1021A00002E0D0231B061B6823712368BFF35F8FF7
:1021B00000221A6081F310880120D3E70268EFF350
:1021C000108172B61368002BFCD0BFF35F8FFF2322
:1021D00003710368BFF35F8F00221A6081F31088D8
:1021E00040BF70477047C04601B40248844601BCF6
:1021F000604700BF390D0010100000000000000013
:1022000000000100000000000000000000000200CB
:1022100000000000000000000000030000000000BB
:10222000000000000000FF000000000001B5486849
:1022300001318E460047704609380149884701BD83
:10224000E506001000000000000000000000000093
:102250000000000000000000500200200040044088
:10226000000000000000000000000000000000006E
:10227000503300004C330000543300005233000050
:102280004D5300004D430000533400004334000020
:10229000CD1B0010D91C0010191C0010ED1C0010E3
:1022A000000000000001000000000000000000002D
:04000005100001E9FD
:00000001FF
